:100000000C942A000C9400080C9427080C944700C8
:100010000C9447000C9447000C9447000C94470044
:100020000C9447000C9447000C9447000C94470034
:100030000C9447000C9447000C9447000C94470024
:100040000C94E6080C9447000C944E080C9447005E
:100050000C94470011241FBECFE5D8E0DEBFCDBF12
:1000600011E0A0E6B0E0ECE1F7E102C005900D92EE
:10007000A037B107D9F711E0A0E7B1E001C01D92A8
:10008000AE37B107E1F70E94D00A0C948C0B0C94A8
:100090000000EF92FF920F931F937B018C0120E0F1
:1000A00030E040E05FE40E94190388238CF0C8012F
:1000B000B70120E030E040E05FE40E94C1010E940F
:1000C00049039B01AC01205030404040504806C0DD
:1000D000C801B7010E9449039B01AC01B901CA01E3
:1000E0001F910F91FF90EF900895A0E0B0E0EBE733
:1000F000F0E00C94550BDC012B01FA019C9192303D
:1001000008F439C1EB018881823008F433C194309E
:1001100069F4843009F02FC111969C91119789815F
:10012000981709F428C1A8E6B0E025C1843009F485
:1001300021C18230A9F4923009F01DC19A01AD01AC
:1001400088E0EA010990AE01E90109929E0181501F
:10015000C1F7E201898111969C918923818308C1AD
:10016000923009F407C112962D903C901397EB0141
:100170008A819B811496AD90BD90CD90DC901797AD
:10018000EC80FD800E811F819101281B390BB90184
:1001900037FF04C066277727621B730B6032710537
:1001A0000CF061C0121613066CF537014801062EDB
:1001B00004C096948794779467940A94D2F721E0C8
:1001C00030E040E050E004C0220F331F441F551FB1
:1001D0006A95D2F721503040404050402E213F21B7
:1001E00040235123211531054105510521F021E01E
:1001F00030E040E050E079018A01E628F72808293C
:1002000019293CC0232BD1F1260E371E350146019A
:10021000062E04C096948794779467940A94D2F734
:1002200021E030E040E050E004C0220F331F441FC3
:10023000551F6A95D2F721503040404050402A2146
:100240003B214C215D21211531054105510521F04E
:1002500021E030E040E050E059016A01A628B728CB
:10026000C828D9280BC0821593052CF01C01AA249C
:10027000BB24650103C0EE24FF24870111969C91E5
:10028000D20111968C91981709F445C0992339F041
:10029000A80197012A193B094C095D0906C0A6016E
:1002A00095012E193F09400B510B57FD08C01182D3
:1002B0003382228224833583468357831DC081E0A5
:1002C00081833382228288279927DC01821B930B4A
:1002D000A40BB50B84839583A683B7830DC0220F2F
:1002E000331F441F551F24833583468357838281E0
:1002F000938101979383828324813581468157813D
:10030000DA01C9010197A109B1098F5F9F4FAF4F72
:10031000BF4328F30BC0918333822282EA0CFB1C7B
:100320000C1D1D1DE482F5820683178383E0808304
:10033000248135814681578157FF1AC0C901AA27F8
:1003400097FDA095BA2F81709070A070B0705695EF
:10035000479537952795822B932BA42BB52B848318
:100360009583A683B7838281938101969383828349
:10037000DF0101C0D201CD01CDB7DEB7E2E10C94BF
:10038000710BA0E2B0E0E7ECF1E00C94610B698343
:100390007A838B839C832D833E834F835887E9E048
:1003A000EE2EF12CEC0EFD1ECE010196B7010E943F
:1003B0003A058E010F5E1F4FCE010596B8010E94CF
:1003C0003A058A8991E089278A8BC701B801AE0175
:1003D000475E5F4F0E9475000E946504A096E6E0AC
:1003E0000C947D0BA0E2B0E0E8EFF1E00C94610B1F
:1003F00069837A838B839C832D833E834F835887C5
:10040000F9E0EF2EF12CEC0EFD1ECE010196B701A6
:100410000E943A058E010F5E1F4FCE010596B8016E
:100420000E943A05C701B801AE01475E5F4F0E94C6
:1004300075000E946504A096E6E00C947D0BA0E296
:10044000B0E0E5E2F2E00C94550B69837A838B838C
:100450009C832D833E834F835887CE010196BE0136
:10046000675F7F4F0E943A05CE010596BE016F5E21
:100470007F4F0E943A059985923088F089898230B1
:10048000C8F0943019F4823051F404C0843029F457
:10049000923081F488E690E0C6C0923049F420E0C2
:1004A0009A858A89981321E02A87CE010996BBC0D4
:1004B000823049F420E09A858A89981321E02A8BBA
:1004C000CE014196B0C02D843E844F8458886D88FB
:1004D0007E888F88988CEE24FF248701AA24BB2471
:1004E000650140E050E060E070E0E0E0F0E0C10174
:1004F00081709070892BE9F0E60CF71C081D191D1E
:100500009A01AB012A0D3B1D4C1D5D1D80E090E062
:10051000A0E0B0E0E614F7040805190520F481E036
:1005200090E0A0E0B0E0BA01A901480F591F6A1F8E
:100530007B1FAA0CBB1CCC1CDD1C97FE08C081E0F5
:1005400090E0A0E0B0E0A82AB92ACA2ADB2A3196B6
:10055000E032F10549F0660C771C881C991C569412
:10056000479437942794C3CFFA85EA892B893C892D
:100570008B859C85280F391F2E5F3F4F17C0CA01FE
:1005800081709070892B61F016950795F794E79428
:1005900080E090E0A0E0B0E8E82AF92A0A2B1B2BC3
:1005A00076956795579547952F5F3F4F77FDE7CF36
:1005B0000CC0440F551F661F771F17FD4160EE0CDE
:1005C000FF1C001F111F21503040403090E05907A0
:1005D00090E0690790E4790760F32B8F3C8FDB0193
:1005E000CA018F779070A070B07080349105A1051A
:1005F000B10561F447FD0AC0E114F10401051105DC
:1006000029F0405C5F4F6F4F7F4F40781A8EFE1786
:1006100011F081E08A8F4D8F5E8F6F8F78A383E01A
:10062000898FCE0149960E946504A096E2E10C9460
:10063000710BA8E1B0E0EFE1F3E00C94610B69838A
:100640007A838B839C832D833E834F83588789E0F5
:10065000E82EF12CEC0EFD1ECE010196B7010E9492
:100660003A058E010F5E1F4FCE010596B8010E941C
:100670003A058985823040F08989823028F0C701A7
:10068000B8010E94B20501C08FEF6896E6E00C94B5
:100690007D0BACE0B0E0EFE4F3E00C94650B698314
:1006A0007A838B839C83CE010196BE016B5F7F4F63
:1006B0000E943A058D81823061F1823050F18430A0
:1006C00021F48E81882351F12EC02F81388537FD8A
:1006D00020C06E812F3131051CF06623F9F023C054
:1006E0008EE190E0821B930B29853A854B855C85D2
:1006F00004C056954795379527958A95D2F7662376
:10070000B1F050954095309521953F4F4F4F5F4F39
:100710000EC020E030E040E050E009C02FEF3FEF96
:100720004FEF5FE704C020E030E040E050E8B9015F
:10073000CA012C96E2E00C94810BA8E0B0E0E3EA59
:10074000F3E00C945D0B7B018C0161157105810553
:10075000910519F482E0898360C083E089838EE18A
:10076000C82ED12CDC82CB82ED82FE820F831887CB
:10077000C801B7010E941604FC013197F7FF3BC086
:10078000222733272E1B3F0B57016801022E04C07E
:10079000D694C794B794A7940A94D2F740E050E057
:1007A00060E070E081E090E0A0E0B0E004C0880F7D
:1007B000991FAA1FBB1F2A95D2F70197A109B1095A
:1007C0008E219F21A023B1230097A105B10521F01F
:1007D00041E050E060E070E04A295B296C297D2906
:1007E0004D835E836F8378878EE190E08E1B9F0B35
:1007F0009C838B8312C0309781F00E2E04C0EE0CC8
:10080000FF1C001F111F0A94D2F7ED82FE820F8396
:100810001887CE1ADF0ADC82CB821A82CE010196BB
:100820000E9465042896EAE00C94790BEF92FF92FF
:100830000F931F937B018C0180E0E81680E0F8069F
:1008400081E0080780E0180788F48FEFE816F104CC
:100850000105110531F028F088E090E0A0E0B0E05B
:1008600017C080E090E0A0E0B0E012C080E0E816A1
:1008700080E0F80680E0080781E0180728F088E1AA
:1008800090E0A0E0B0E004C080E190E0A0E0B0E043
:1008900020E230E040E050E0281B390B4A0B5B0BB4
:1008A00004C016950795F794E7948A95D2F7F70157
:1008B000E059FF4F8081281B310941095109C901C5
:1008C0001F910F91FF90EF900895DF92EF92FF92AA
:1008D0000F931F93FC01E480F58006811781D1807E
:1008E0008081823048F480E090E0A0E1B0E0E82A26
:1008F000F92A0A2B1B2BA5C0843009F49FC0823033
:1009000021F4EE24FF24870105C0E114F104010560
:10091000110519F4E0E0F0E096C0628173819FEF69
:10092000623879070CF05BC022E83FEF261B370BDB
:100930002A3131052CF020E030E040E050E02AC0C0
:10094000B801A701022E04C0769567955795479583
:100950000A94D2F781E090E0A0E0B0E004C0880FF4
:10096000991FAA1FBB1F2A95D2F70197A109B109A8
:100970008E219F21A023B1230097A105B10521F06D
:1009800081E090E0A0E0B0E09A01AB01282B392B88
:100990004A2B5B2BDA01C9018F779070A070B07081
:1009A00080349105A105B10539F427FF09C0205C09
:1009B0003F4F4F4F5F4F04C0215C3F4F4F4F5F4F42
:1009C000E0E0F0E02030A0E03A07A0E04A07A0E431
:1009D0005A0710F0E1E0F0E079018A0127C06038A1
:1009E000710564F5FB01E158FF4FD801C7018F770E
:1009F0009070A070B07080349105A105B10539F4F4
:100A0000E7FE0DC080E490E0A0E0B0E004C08FE31A
:100A100090E0A0E0B0E0E80EF91E0A1F1B1F17FFD0
:100A200005C016950795F794E794319687E01695DB
:100A30000795F794E7948A95D1F705C0EE24FF2433
:100A40008701EFEFF0E06E2F679566276795902F8F
:100A50009F77D794DD24D7948E2F8695492F462BE8
:100A6000582F5D29B701CA011F910F91FF90EF9098
:100A7000DF900895FC01DB01408151812281622FCA
:100A80006F7770E0221F2227221F9381892F880F02
:100A9000822B282F30E0991F9927991F11969C933C
:100AA000119721153105A9F541155105610571050C
:100AB00011F482E037C082E89FEF13969C938E93E7
:100AC00012979A01AB0167E0220F331F441F551F95
:100AD0006A95D1F783E08C930DC0220F331F441F1A
:100AE000551F12968D919C911397019713969C9385
:100AF0008E931297203080E0380780E0480780E42A
:100B0000580758F314962D933D934D935C93179784
:100B100008952F3F310579F441155105610571059F
:100B200019F484E08C93089564FF03C081E08C93F2
:100B300012C01C9210C02F57304013963C932E9336
:100B4000129783E08C9387E0440F551F661F771F31
:100B50008A95D1F7706414964D935D936D937C9351
:100B6000179708951F93DC01FB019C91923008F4C4
:100B700047C08081823008F443C0943051F411960C
:100B80001C91843099F58181682F70E0611B710997
:100B90003FC0843021F0923031F48230B9F181814C
:100BA000882389F12DC011961C9111978230F1F0A4
:100BB00081811817D9F412962D913C911397828157
:100BC00093818217930794F028173907BCF0149685
:100BD0008D919D910D90BC91A02D248135814681F0
:100BE0005781281739074A075B0718F4112341F08A
:100BF0000AC082179307A407B50740F4112319F020
:100C000061E070E005C06FEF7FEF02C060E070E070
:100C1000CB011F9108951ABA17BA14BA11BA1BBAA8
:100C200018BA15BA12BA80B78B7F80BF08956830A2
:100C300008F07EC0813031F1813038F0823009F423
:100C40003EC0833009F074C056C0442321F04130C7
:100C500009F06EC00CC02AB381E090E002C0880F9A
:100C6000991F6A95E2F7809582238ABB5FC02AB3F9
:100C700081E090E002C0880F991F6A95E2F7282B67
:100C80002ABB54C0442321F0413009F051C00CC0AC
:100C900027B381E090E002C0880F991F6A95E2F7C0
:100CA0008095822387BB42C027B381E090E002C0D9
:100CB000880F991F6A95E2F7282B27BB37C044237A
:100CC00019F04130A9F50CC024B381E090E002C0D6
:100CD000880F991F6A95E2F78095822384BB26C00E
:100CE00024B381E090E002C0880F991F6A95E2F773
:100CF000282B24BB1BC0442319F04130C9F40CC07D
:100D000021B381E090E002C0880F991F6A95E2F755
:100D10008095822381BB0AC021B381E090E002C0AC
:100D2000880F991F6A95E2F7282B21BB80E0089570
:100D300081E00895683008F07AC0813029F181306F
:100D400038F0823009F43CC0833009F06EC053C0E3
:100D5000442371F0413009F06AC02BB381E090E088
:100D600002C0880F991F6A95E2F7282B2BBB5DC044
:100D70002BB381E090E002C0880F991F6A95E2F7DB
:100D8000809582238BBB51C0442371F0413009F020
:100D90004EC028B381E090E002C0880F991F6A9589
:100DA000E2F7282B28BB41C028B381E090E002C0C5
:100DB000880F991F6A95E2F78095822388BB35C01A
:100DC000442369F0413099F525B381E090E002C0F9
:100DD000880F991F6A95E2F7282B25BB26C025B3FB
:100DE00081E090E002C0880F991F6A95E2F7809534
:100DF000822385BB1AC0442369F04130C1F422B379
:100E000081E090E002C0880F991F6A95E2F7282BD5
:100E100022BB0BC022B381E090E002C0880F991F73
:100E20006A95E2F78095822382BB80E0089581E095
:100E300008956830B0F5813091F0813028F082302B
:100E4000C9F0833071F521C02BB381E090E002C07E
:100E5000880F991F6A95E2F728272BBB20C028B37B
:100E600081E090E002C0880F991F6A95E2F7282779
:100E700028BB15C025B381E090E002C0880F991F00
:100E80006A95E2F7282725BB0AC022B381E090E0EB
:100E900002C0880F991F6A95E2F7282722BB80E0DD
:100EA000089581E00895FA01683010F081E0089516
:100EB000813049F0813028F0823039F0833071F48C
:100EC0000FC089B303C086B301C083B390E002C0F2
:100ED000959587956A95E2F78170808380E0089503
:100EE00080B390E002C0959587956A95E2F781708E
:100EF000808380E00895683008F07EC0813031F151
:100F0000813038F0823009F43EC0833009F074C07B
:100F100056C0442321F0413009F070C00CC02BB3FF
:100F200081E090E002C0880F991F6A95E2F78095F2
:100F300082238BBB5FC02BB381E090E002C0880F9F
:100F4000991F6A95E2F7282B2BBB54C0442321F04C
:100F5000413009F053C00CC028B381E090E002C0DA
:100F6000880F991F6A95E2F78095822388BB42C05B
:100F700028B381E090E002C0880F991F6A95E2F7DC
:100F8000282B28BB37C0442319F04130B9F50CC0D9
:100F900025B381E090E002C0880F991F6A95E2F7BF
:100FA0008095822385BB26C025B381E090E002C0F6
:100FB000880F991F6A95E2F7282B25BB1BC0442395
:100FC00019F04130D9F40CC022B381E090E002C0A6
:100FD000880F991F6A95E2F78095822382BB0AC029
:100FE00022B381E090E002C0880F991F6A95E2F772
:100FF000282B22BB80E0089581E0089580E00895C9
:101000001F920F920FB60F9211242F933F934F937D
:101010005F936F937F938F939F93AF93BF93EF9360
:10102000FF93E0917001F09171010995FF91EF91AB
:10103000BF91AF919F918F917F916F915F914F91F0
:101040003F912F910F900FBE0F901F9018951F92F8
:101050000F920FB60F9211242F933F934F935F93EC
:101060006F937F938F939F93AF93BF93EF93FF9370
:10107000E0917201F09173010995FF91EF91BF9199
:10108000AF919F918F917F916F915F914F913F9120
:101090002F910F900FBE0F901F9018951F920F92D7
:1010A0000FB60F9211242F933F934F935F936F933B
:1010B0007F938F939F93AF93BF93EF93FF93E091B1
:1010C0007401F09175010995FF91EF91BF91AF9176
:1010D0009F918F917F916F915F914F913F912F9150
:1010E0000F900FBE0F901F901895982F8BB78064AC
:1010F0008BBF992321F0913051F081E0089585B79D
:10110000826085BF85B7816085BF80E0089585B71F
:10111000826085BF85B78E7F85BF80E008959093FC
:1011200071018093700180E00895982F8BB78068DB
:101130008BBF992321F0913051F081E0089585B75C
:10114000886085BF85B7846085BF80E0089585B7D6
:10115000886085BF85B78B7F85BF80E008959093B9
:1011600073018093720180E00895982F8BB780629D
:101170008BBF992321F0913039F081E0089584B735
:10118000806484BF80E0089584B78F7B84BF80E053
:101190000895909375018093740180E008953F98BD
:1011A0003E9A379A329A319A0895882321F08130F5
:1011B00029F081E00895339A80E00895339880E023
:1011C0000895909377018093760108951F920F926E
:1011D0000FB60F9211242F933F934F935F936F930A
:1011E0007F938F939F93AF93BF93EF93FF93E09180
:1011F0007601F09177010995FF91EF91BF91AF9141
:101200009F918F917F916F915F914F913F912F911E
:101210000F900FBE0F901F901895982F883010F0E8
:1012200081E0089587B1887F87B987B1892B87B915
:10123000369A80E00895FC0134B125B1922F80E008
:10124000830F911D93709183808380E00895982F80
:10125000FB01883010F081E0089587B1887F87B95D
:1012600087B1892B87B9369A3699FECF34B125B12B
:10127000922F80E0830F911D93709183808380E093
:1012800008950F931F93DF93CF9300D0CDB7DEB7B0
:101290008B01883010F081E01FC01A821982BE01D4
:1012A0006F5F7F4F0E94270969817A8180E090E01B
:1012B0000E949D0320E030E040EA50E40E941F02BB
:1012C00020E030E040E85AE30E941F02F80160830A
:1012D00071838283938380E00F900F90CF91DF9191
:1012E0001F910F910895FF920F931F93082F87FF6F
:1012F00004C082E065E041E003C082E065E040E0D8
:101300000E949A06F02E06FF04C082E064E041E0ED
:1013100003C082E064E040E00E949A06F5FE04C04B
:1013200082E063E041E003C082E063E040E00E94CD
:101330009A06F4FE04C082E062E041E003C082E06D
:1013400062E040E00E949A0682E066E041E00E948E
:101350009A0600ED17E0C8010197F1F782E066E018
:1013600040E00E949A06C8010197F1F7F3FE04C01D
:1013700082E065E041E003C082E065E040E00E9479
:101380009A06F2FE04C082E064E041E003C082E01D
:1013900064E040E00E949A06F1FE04C082E063E04F
:1013A00041E003C082E063E040E00E949A06F0FE64
:1013B00004C082E062E041E003C082E062E040E01D
:1013C0000E949A0682E066E041E00E949A0600EDE3
:1013D00017E0C8010197F1F782E066E040E00E9463
:1013E0009A06C8010197F1F71F910F91FF90089598
:1013F0001F93182F82E067E041E00E949A06812F38
:101400000E94730980E01F910895CF93DF93EC0150
:1014100002C00E94F80989918823D9F7DF91CF9102
:1014200008952F923F924F925F926F927F929F9278
:10143000AF92BF92CF92DF92EF92FF920F931F93E2
:10144000DF93CF93CDB7DEB7E2970FB6F894DEBF48
:101450000FBECDBF2C01FE01319682E3DF011D924C
:101460008A95E9F780EAE82E86E8F82E81E0082FD1
:10147000112D9924662477241F015201CC24DD24E8
:10148000C601B501A80197010E94330BC901DA0119
:101490000097A105B10569F0F101E90DF11D805D2D
:1014A0008083C601B501A80197010E94330B2B016F
:1014B0009394C801B7012AE030E040E050E00E9478
:1014C000330BC901DA017C018D010894611C711C88
:1014D000B5E06B16710489F6CE010196FC01E90DA9
:1014E000F11D242D205D20839394FC01E90DF11D55
:1014F00010820E94050A80E0E2960FB6F894DEBFE3
:101500000FBECDBFCF91DF911F910F91FF90EF9054
:10151000DF90CF90BF90AF909F907F906F905F9043
:101520004F903F902F9008951F93182F82E067E00F
:1015300040E00E949A06812F0E94730980E01F916B
:10154000089582E067E041E00E94170682E066E0CD
:1015500041E00E94170682E065E041E00E94170624
:1015600082E064E041E00E94170682E063E041E02F
:101570000E94170682E062E041E00E94170682E0C6
:101580000E94940A88E20E94940A81E00E94940AD0
:101590008CE00E94940A80E29EE40197F1F708959E
:1015A000CF93DF930E940B060E94A10A0E94CF08EE
:1015B00083E19BE00E94E10880E00E94D5088FB79C
:1015C00080688FBF87E70E94F80980E197E228ECE6
:1015D00030E0F9013197F1F70197D9F781E00E94E6
:1015E000940A80E690E00E94050AC8ECD0E080E012
:1015F0000E940D0960917A0170917B0180917C01BC
:1016000090917D010E944900DC01CB010E94110AEA
:1016100080E197E2FE013197F1F70197D9F781E078
:101620000E94940AE4CF88E791E00E941B09209170
:10163000780130917901B901660F771F660F771F26
:10164000620F731F672F77276695669580E090E09D
:101650000E949D0360937A0170937B0180937C01CB
:1016600090937D010895A1E21A2EAA1BBB1BFD01D8
:101670000DC0AA1FBB1FEE1FFF1FA217B307E40771
:10168000F50720F0A21BB30BE40BF50B661F771FC9
:10169000881F991F1A9469F76095709580959095A9
:1016A0009B01AC01BD01CF0108952F923F924F9253
:1016B0005F926F927F928F929F92AF92BF92CF92E2
:1016C000DF92EF92FF920F931F93CF93DF93CDB7EB
:1016D000DEB7CA1BDB0B0FB6F894DEBF0FBECDBF63
:1016E00009942A88398848885F846E847D848C8434
:1016F0009B84AA84B984C884DF80EE80FD800C813D
:101700001B81AA81B981CE0FD11D0FB6F894DEBF1F
:0C1710000FBECDBFED010895F894FFCF8F
:10171C0057656C636F6D65000000000000000000F1
:10172C00000102020303030304040404040404047C
:10173C00050505050505050505050505050505054D
:10174C00060606060606060606060606060606062D
:10175C00060606060606060606060606060606061D
:10176C0007070707070707070707070707070707FD
:10177C0007070707070707070707070707070707ED
:10178C0007070707070707070707070707070707DD
:10179C0007070707070707070707070707070707CD
:1017AC0008080808080808080808080808080808AD
:1017BC00080808080808080808080808080808089D
:1017CC00080808080808080808080808080808088D
:1017DC00080808080808080808080808080808087D
:1017EC00080808080808080808080808080808086D
:1017FC00080808080808080808080808080808085D
:10180C00080808080808080808080808080808084C
:10181C00080808080808080808080808080808083C
:00000001FF
