:100000000C942A000C9434000C9434000C943400AA
:100010000C9434000C9434000C9434000C94340090
:100020000C9434000C9434000C9434000C94340080
:100030000C9434000C9434000C9434000C94340070
:100040000C9434000C9434000C9434000C94340060
:100050000C94340011241FBECFE5D4E0DEBFCDBF29
:100060000E942B020C9474020C9400001ABA17BA66
:1000700014BA11BA1BBA18BA15BA12BA80B78B7F64
:1000800080BF0895683008F07EC0813031F1813042
:1000900038F0823009F43EC0833009F074C056C095
:1000A000442321F0413009F06EC00CC02AB381E036
:1000B00090E002C0880F991F6A95E2F7809582232D
:1000C0008ABB5FC02AB381E090E002C0880F991F0D
:1000D0006A95E2F7282B2ABB54C0442321F0413013
:1000E00009F051C00CC027B381E090E002C0880F36
:1000F000991F6A95E2F78095822387BB42C027B398
:1001000081E090E002C0880F991F6A95E2F7282BE2
:1001100027BB37C0442319F04130A9F50CC024B3E4
:1001200081E090E002C0880F991F6A95E2F7809500
:10013000822384BB26C024B381E090E002C0880FF4
:10014000991F6A95E2F7282B24BB1BC0442319F0A2
:100150004130C9F40CC021B381E090E002C0880FA7
:10016000991F6A95E2F78095822381BB0AC021B36B
:1001700081E090E002C0880F991F6A95E2F7282B72
:1001800021BB80E0089581E00895683008F07AC0CE
:10019000813029F1813038F0823009F43CC083305D
:1001A00009F06EC053C0442371F0413009F06AC0B9
:1001B0002BB381E090E002C0880F991F6A95E2F7A7
:1001C000282B2BBB5DC02BB381E090E002C0880FD1
:1001D000991F6A95E2F7809582238BBB51C0442317
:1001E00071F0413009F04EC028B381E090E002C0C8
:1001F000880F991F6A95E2F7282B28BB41C028B3C6
:1002000081E090E002C0880F991F6A95E2F780951F
:10021000822388BB35C0442369F0413099F525B36A
:1002200081E090E002C0880F991F6A95E2F7282BC1
:1002300025BB26C025B381E090E002C0880F991F3E
:100240006A95E2F78095822385BB1AC0442369F042
:100250004130C1F422B381E090E002C0880F991FC1
:100260006A95E2F7282B22BB0BC022B381E090E015
:1002700002C0880F991F6A95E2F78095822382BB9E
:1002800080E0089581E008956830B0F5813091F004
:10029000813028F08230C9F0833071F521C02BB352
:1002A00081E090E002C0880F991F6A95E2F7282745
:1002B0002BBB20C028B381E090E002C0880F991FBB
:1002C0006A95E2F7282728BB15C025B381E090E0A6
:1002D00002C0880F991F6A95E2F7282725BB0AC03C
:1002E00022B381E090E002C0880F991F6A95E2F77F
:1002F000282722BB80E0089581E00895FA01683044
:1003000010F081E00895813049F0813028F082308A
:1003100039F0833071F40FC089B303C086B301C0D4
:1003200083B390E002C0959587956A95E2F7817056
:10033000808380E0089580B390E002C09595879512
:100340006A95E2F78170808380E00895683008F054
:100350007EC0813031F1813038F0823009F43EC006
:10036000833009F074C056C0442321F0413009F0B5
:1003700070C00CC02BB381E090E002C0880F991FC1
:100380006A95E2F7809582238BBB5FC02BB381E037
:1003900090E002C0880F991F6A95E2F7282B2BBBCB
:1003A00054C0442321F0413009F053C00CC028B39D
:1003B00081E090E002C0880F991F6A95E2F780956E
:1003C000822388BB42C028B381E090E002C0880F3E
:1003D000991F6A95E2F7282B28BB37C0442319F0F0
:1003E0004130B9F50CC025B381E090E002C0880F20
:1003F000991F6A95E2F78095822385BB26C025B3B5
:1004000081E090E002C0880F991F6A95E2F7282BDF
:1004100025BB1BC0442319F04130D9F40CC022B3D2
:1004200081E090E002C0880F991F6A95E2F78095FD
:10043000822382BB0AC022B381E090E002C0880F11
:10044000991F6A95E2F7282B22BB80E0089581E08E
:10045000089580E008951F93CF93DF930E943600A4
:1004600081E064E041E00E94420081E065E041E01B
:100470000E94420081E066E041E00E94420081E08B
:1004800067E041E00E94420080E064E041E00E94B9
:10049000420010E0C8ECD0E01EC088E893E1FE0105
:1004A0003197F1F70197D9F780E064E040E00E94CE
:1004B000C50081E0612F41E00E94C50088E893E11A
:1004C000FE013197F1F70197D9F781E0612F40E004
:1004D0000E94C5001F5F183000F380E064E041E037
:0C04E0000E94C50010E0D9CFF894FFCFB7
:00000001FF
